:030000000207D222
:0C07D200787FE4F6D8FD758173020819E9
:100A5800000000000000000000000000000000008E
:100A6800000000000000000000000000000000007E
:0C0A780000000000000000000000000072
:100949001F4F00000030163110062200FF0BE4FF94
:1009590005D8FF085EFF09F9FF0987FF0003FF0AB1
:1009690084024300000245000002470000024900DA
:0D09790000014B00014C00014D00014E003B
:100AFE001200037B007A00794F855B82855A831240
:100B0E0001F5120B8F7B007A00794F12021E80F5D1
:0A0BE400E92402F9E43AFA02098755
:0605D8008B088A09890A64
:1005DE00780B7C007D007BFF7A0A79587E007F09BC
:1005EE001200EE78147C007D007BFF7A0A79617E22
:1005FE00007F0D1200EEAB08AA09A90A90000412A2
:10060E00012DFFC4540F2430F50BEF540F2430F599
:10061E000C750D2D90000312012DFFC4540F2430C4
:10062E00F50EEF540F2430F50F75102D90000212B9
:10063E00012DFFC4540F2430F511EF540F2430F563
:10064E001290000812012DFFC4540F2430F514EF40
:10065E00540F2430F51575162D90000612012DFF3E
:10066E00C4540F2430F517EF540F2430F5187519B4
:10067E002D90000512012DFFC4540F2430F51AEFF2
:10068E00540F2430F51B7B007A00790BE4FDFF122A
:0F069E000A847B007A0079147D01E4FF020A844C
:06085E008B088A09890ADB
:10086400780B7C007D007BFF7A0A796E7E007F091D
:100874001200EE78147C007D007BFF7A0A79777E83
:10088400007F0D1200EE7524007525007526147B7B
:10089400007A00790B1205017B007A00790BE4FDE4
:1008A400FF120A847B007A0079147D01E4FF020AB6
:0108B40084BF
:100B8F00438910758DFC758B18D2ABD2AFD28E22E4
:03001B000208B523
:1008B500C0E0C0F0C083C082C0D075D000C000C009
:0D08C50001C002C003C004C005C006C0078A
:1008D200758DFC758B180542E54270020541641462
:0B08E20045417007F541F54212042962
:1008ED00D007D006D005D004D003D002D001D0005F
:0B08FD00D0D0D082D083D0F0D0E03209
:1004290020B0290544E54470020543D39403E5430C
:10043900648094804020E54B701CFB7A00794F1250
:100449000339E4F543F544754B01800A30B007E4FC
:10045900F543F544F54B20B1290546E546700205FB
:1004690045D39403E545648094804020E54C701C95
:10047900FB7A00794F1206ADE4F545F546754C0156
:10048900800A30B107E4F545F546F54C20B2290557
:1004990048E54870020547D39403E5476480948092
:1004A9004020E54D701CFB7A00794F120741E4F5B5
:1004B90047F548754D01800A30B207E4F547F5481C
:1004C900F54D20B328054AE54A70020549D394033E
:1004D900E54964809480401FE54E701BFB7A0079E2
:1004E9004F120908E4F549F54A754E012230B30760
:0704F900E4F549F54AF54E58
:0105000022D8
:1009C30053686F7700536574007365636F6E6400DB
:1009D3006D696E75746500686F7572006461790086
:1009E3006D6F6E74680079656172006572720000E4
:0609F300000000000000FE
:100B1E00900001ED12019FE92402F9E43AFAED7C0E
:0E0B2E000029F9EC3AFAE57312018D7F0022DE
:060339008B368A3789387B
:10033F0078397C007D007BFF7A0979F27E007F0798
:10034F001200EEAB36AA37A9389000191201C1126C
:10035F0001F1AB36AA37A938120114F412018DAB93
:10036F0036AA37A9381201147057F540C3E54094E7
:10037F0007748094805023AB36E5382402F9E435B6
:10038F0037FA7E00E92540F9EE3AFA120114FF74AC
:10039F00392540F8A607054080D27B007A007939CD
:1003AF00C003C002C001AB36AA37A938900016129D
:1003BF0001C189828A83D001D002D0031201F58056
:1003CF00567B007A007939C003C002C001AB36AA50
:1003DF0037A9389000131201C189828A83D001D0C6
:1003EF0002D0031201F5E4F540C3E5409407748091
:1003FF009480502374392540F8E6FFAB36E5382456
:10040F0002F9E43537FAE5407C0029F9EC3AFAEFC6
:09041F0012018D054080D27F001E
:0104280022B1
:100908008B368A3789389000191201C11201F1AB70
:1009180036AA37A938120114602490000174011214
:10092800015A90000112012DD394057480948040DF
:100938000DAB36AA37A938900001E412019F7F0059
:01094800228C
:0606AD008B368A37893804
:1006B300120114607790000112012DFFFD7C00E907
:1006C3002402F9E43AFAE92DF9EC3AFA120114FE9C
:1006D300C4540F75F006A4FDC3EE9DFE0EEED39435
:1006E3003C748094804002E4FEEE75F00A8475F059
:1006F30006A42EFEAB36EFFD7C00E5382402F9E4B8
:100703003537FAE92DF9EC3AFAEE12018DAB36AA38
:1007130037A938C003C002C0019000101201C1897B
:10072300828A83D001D002D0031201F5AB36AA37F7
:0D073300A9389000191201C11201F17F00D8
:010740002296
:060741008B368A3789386F
:10074700120114607490000112012DFFFD7C00E975
:100757002402F9E43AFAE92DF9EC3AFA120114FE07
:10076700C4540F75F006A4FDC3EE9DFED394007428
:1007770080948040011EEE75F00A8475F006A42E61
:10078700FEAB36EFFD7C00E5382402F9E43537FA95
:10079700E92DF9EC3AFAEE12018DAB36AA37A938F2
:1007A700C003C002C0019000101201C189828A8370
:1007B700D001D002D0031201F5AB36AA37A9389081
:0A07C70000191201C11201F17F00B8
:0107D1002205
:10021E008B088A09890A120114700BC003C002C030
:10022E0001900010800FAB08AA09A90AC003C002F2
:10023E00C00190000D1201C189828A83D001D002C3
:10024E00D0031201F5AB08AA09A90A1201147029EC
:10025E007BFF7A0979C3C003C002C001AB08AA09AB
:10026E00A90A90001C1201C189828A83D001D00292
:10027E00D003E4FD7F0C1201F5AB08AA09A90A12FE
:10028E00011470030203367BFF7A0979C8C003C0DC
:10029E0002C001AB08AA09A90A90001C1201C1896B
:1002AE00828A83D001D002D003E4FD7F0C1201F5C7
:1002BE00AB08AA09A90A90000112012D14601814A6
:1002CE00601D14602214602714602C240570307B8E
:1002DE00FF7A0979CC802E7BFF7A0979D380267B31
:1002EE00FF7A0979DA801E7BFF7A0979DF80167B27
:1002FE00FF7A0979E3800E7BFF7A0979E980067B24
:10030E00FF7A0979EEC003C002C001AB08AA09A9A1
:10031E000A90001C1201C189828A83D001D002D0BA
:0B032E00037D017F0B1201F57F002210
:0E0BBF0081838587898B8D80828486888A8CCD
:060AAE007B007A007F8E40
:100AB4008B0C8A0D890EC29200C29100D292001250
:100AC4000B3CAB0CAA0DA90E120114FF120B3CC275
:030AD4009200226B
:100A29008B338A348935C29200C29100D292001266
:100A39000B3C00120AD7AB33AA34A935EF12018D4A
:0F0A4900C29200D29100C29000D29000AF35222D
:060987008B088A09890AB1
:10098D007900120AAEE4F50BC3E50B94077480945D
:10099D0080501BE50B900BC693FFAB08E50B7C005D
:1009AD00250AF9EC3509FA120AB4050B80DA7980BB
:0509BD00120AAE7F00EC
:0109C2002212
:0609F9008B2F8A308931CA
:1009FF00E4F532C3E532940774809480501BE532DE
:100A0F00900BBF93FFAB2FE5327C002531F9EC350E
:090A1F0030FA120A29053280DACE
:010A280022AB
:060501008B218A228923F0
:100507007B007A0079271209F9E529C4540F2430B2
:10051700AB21AA22A92312018DE529540F2430AB60
:1005270021AA22A92390000112019F900002742D95
:1005370012019FE528C4540F243090000312019F35
:10054700E528540F243090000412019F9000057491
:100557002D12019FE527C4540F2430900006120185
:100567009FE527540F243090000712019FE52DC403
:10057700540F2430AB24AA25A92612018DE52D544A
:100587000F2430AB24AA25A92690000112019F90C1
:100597000002742D12019FE52BC4540F24309000E4
:1005A7000312019FE52B540F243090000412019F82
:1005B700900005742D12019FE52AC4540F24309032
:1005C700000612019FE52A540F243090000702010C
:0105D7009F84
:080BF70000AE071FEE70F922A9
:0B0BD900D290D29100C29000C2912285
:090BEE00C290D29100D2900022C5
:100B7E00C291EF24FF929000D29100C291D29000C8
:010B8E002244
:0B0BCD00D29100A290E433FFC291001F
:010BD80022FA
:100B3C00E4FEEEC39408748094805011EF139290ED
:0D0B4C00EFC313FFD29100C291000E80E5AF
:010B59002279
:100AD700E4FEEEC3940874809480501AA290E43325
:100AE700FDC43333335480FCEFC3134CFFD2910062
:060AF700C291000E80DC3C
:010AFD0022D6
:100B5A007580FFC2A0D2A1D2A2AF80C2A2EF20E7C5
:010B6A00F694
:010B6B002267
:100B9F00AE07120B5AC2A0C2A18E80D2A2C2A2224D
:100BAF00AE07120B5AD2A0C2A18E80D2A2C2A2222D
:100B6C00ED7004AC078004EF2440FCEC4480FF02E1
:020B7C000B9FCD
:100A84008B218A228923120B6CAB21AA22A923125F
:100A9400011460130523E5237002052214F91201E1
:0A0AA40014FF120BAF80E27F002266
:100003007F38120B9F7F0C120B9F7F06120B9F7F73
:0700130001120B9F7F002288
:1007DE00020AFEE493A3F8E493A34003F68001F229
:1007EE0008DFF48029E493A3F85407240CC8C3331C
:1007FE00C4540F4420C8834004F456800146F6DFEB
:10080E00E4800B0102040810204080900949E47E28
:10081E00019360BCA3FF543F30E509541FFEE493DF
:10082E00A360010ECF54C025E060A840B8E493A3A6
:10083E00FAE493A3F8E493A3C8C582C8CAC583CAD1
:10084E00F0A3C8C582C8CAC583CADFE9DEE780BE89
:010986000070
:10001E00E709F608DFFA8046E709F208DFFA803EC4
:10002E0088828C83E709F0A3DFFA8032E309F608B1
:10003E00DFFA8078E309F208DFFA807088828C8319
:10004E00E309F0A3DFFA806489828A83E0A3F608CD
:10005E00DFFA805889828A83E0A3F208DFFA804CA7
:10006E0080D280FA80C680D4806980F2803380107E
:10007E0080A680EA809A80A880DA80E280CA8033E7
:10008E0089828A83ECFAE493A3C8C582C8CCC5835F
:10009E00CCF0A3C8C582C8CCC583CCDFE9DEE7802F
:1000AE000D89828A83E493A3F608DFF9ECFAA9F0AE
:1000BE00EDFB2289828A83ECFAE0A3C8C582C8CC04
:1000CE00C583CCF0A3C8C582C8CCC583CCDFEADE1D
:1000DE00E880DB89828A83E493A3F208DFF980CC7F
:1000EE0088F0EF60010E4E60C388F0ED2402B40478
:1000FE000050B9F582EB2402B4040050AF2323451F
:06010E00822390006E73D5
:10011400BB010689828A83E0225002E722BBFE02E9
:09012400E32289828A83E493221C
:10012D00BB010CE58229F582E5833AF583E0225087
:10013D0006E92582F8E622BBFE06E92582F8E222D1
:0D014D00E58229F582E5833AF583E49322EB
:10015A00BB010FF8E58229F582E5833AF583E028A9
:10016A00F0225009C58229F8E58226F622BBFE094B
:10017A00C58229F8E22582F222F8EA2583F583E985
:03018A0093282295
:10018D00BB010689828A83F0225002F722BBFE0151
:02019D00F3224B
:10019F00F8BB010DE58229F582E5833AF583E8F096
:1001AF00225006E92582C8F622BBFE05E92582C842
:0201BF00F2222A
:1001C100BB010DE58229F582E5833AF58302020040
:1001D1005007E92582F80201F7BBFE07E92582F8FD
:1001E100020209E58229F582E5833AF583020212CA
:0601F1008A838982E47399
:0901F700E6FB08E6FA08E6F9222D
:09020000E0FBA3E0FAA3E0F922FF
:09020900E2FB08E2FA08E2F92226
:0C021200E493FB740193FA740293F92248
:00000001FF
